{
  "contractName": "Kryptobird",
  "abi": [
    {
      "inputs": [],
      "stateMutability": "nonpayable",
      "type": "constructor"
    },
    {
      "inputs": [],
      "name": "name",
      "outputs": [
        {
          "internalType": "string",
          "name": "",
          "type": "string"
        }
      ],
      "stateMutability": "view",
      "type": "function",
      "constant": true
    },
    {
      "inputs": [],
      "name": "symbol",
      "outputs": [
        {
          "internalType": "string",
          "name": "",
          "type": "string"
        }
      ],
      "stateMutability": "view",
      "type": "function",
      "constant": true
    }
  ],
  "bytecode": "0x608060405234801561001057600080fd5b5060405180602001604052806000815250604051806020016040528060008152508181816000908051906020019061004992919061006a565b50806001908051906020019061006092919061006a565b505050505061016e565b8280546100769061013c565b90600052602060002090601f01602090048101928261009857600085556100df565b82601f106100b157805160ff19168380011785556100df565b828001600101855582156100df579182015b828111156100de5782518255916020019190600101906100c3565b5b5090506100ec91906100f0565b5090565b5b808211156101095760008160009055506001016100f1565b5090565b7f4e487b7100000000000000000000000000000000000000000000000000000000600052602260045260246000fd5b6000600282049050600182168061015457607f821691505b602082108114156101685761016761010d565b5b50919050565b6102ed8061017d6000396000f3fe608060405234801561001057600080fd5b50600436106100365760003560e01c806306fdde031461003b57806395d89b4114610059575b600080fd5b610043610077565b6040516100509190610234565b60405180910390f35b610061610109565b60405161006e9190610234565b60405180910390f35b60606000805461008690610285565b80601f01602080910402602001604051908101604052809291908181526020018280546100b290610285565b80156100ff5780601f106100d4576101008083540402835291602001916100ff565b820191906000526020600020905b8154815290600101906020018083116100e257829003601f168201915b5050505050905090565b60606001805461011890610285565b80601f016020809104026020016040519081016040528092919081815260200182805461014490610285565b80156101915780601f1061016657610100808354040283529160200191610191565b820191906000526020600020905b81548152906001019060200180831161017457829003601f168201915b5050505050905090565b600081519050919050565b600082825260208201905092915050565b60005b838110156101d55780820151818401526020810190506101ba565b838111156101e4576000848401525b50505050565b6000601f19601f8301169050919050565b60006102068261019b565b61021081856101a6565b93506102208185602086016101b7565b610229816101ea565b840191505092915050565b6000602082019050818103600083015261024e81846101fb565b905092915050565b7f4e487b7100000000000000000000000000000000000000000000000000000000600052602260045260246000fd5b6000600282049050600182168061029d57607f821691505b602082108114156102b1576102b0610256565b5b5091905056fea2646970667358221220950fd22fa8476a3e5e47ac55f17fd86d6a808fc010211cbea1dfc5fa9220ba7364736f6c634300080c0033",
  "immutableReferences": {},
  "source": "// SPDX-License-Identifier: MIT\r\npragma solidity ^0.8.0;\r\nimport './ERC721connector.sol';\r\n\r\n\r\ncontract Kryptobird is ERC721connector {\r\n\r\n    constructor() ERC721connector(\"\",\"\") {\r\n     \r\n    }\r\n}",
  "sourcePath": "E:/blockchain/Nft marketplace/nft-marketplace-starter-kit/src/contracts/KryptoBirdz.sol",
  "compiler": {
    "name": "solc",
    "version": "0.8.12+commit.f00d7308.Emscripten.clang"
  },
  "schemaVersion": "3.4.1",
  "updatedAt": "2022-02-18T06:41:02.718Z",
  "networkType": "ethereum",
  "devdoc": {
    "kind": "dev",
    "methods": {},
    "version": 1
  },
  "userdoc": {
    "kind": "user",
    "methods": {},
    "version": 1
  }
}