{
  "contractName": "Kryptobird",
  "abi": [
    {
      "inputs": [],
      "stateMutability": "nonpayable",
      "type": "constructor"
    },
    {
      "anonymous": false,
      "inputs": [
        {
          "indexed": true,
          "internalType": "address",
          "name": "from",
          "type": "address"
        },
        {
          "indexed": true,
          "internalType": "address",
          "name": "to",
          "type": "address"
        },
        {
          "indexed": true,
          "internalType": "uint256",
          "name": "tokenId",
          "type": "uint256"
        }
      ],
      "name": "Transfer",
      "type": "event"
    },
    {
      "inputs": [
        {
          "internalType": "address",
          "name": "_owner",
          "type": "address"
        }
      ],
      "name": "balanceOf",
      "outputs": [
        {
          "internalType": "uint256",
          "name": "",
          "type": "uint256"
        }
      ],
      "stateMutability": "view",
      "type": "function",
      "constant": true
    },
    {
      "inputs": [
        {
          "internalType": "uint256",
          "name": "",
          "type": "uint256"
        }
      ],
      "name": "kryptoBirdz",
      "outputs": [
        {
          "internalType": "string",
          "name": "",
          "type": "string"
        }
      ],
      "stateMutability": "view",
      "type": "function",
      "constant": true
    },
    {
      "inputs": [],
      "name": "name",
      "outputs": [
        {
          "internalType": "string",
          "name": "",
          "type": "string"
        }
      ],
      "stateMutability": "view",
      "type": "function",
      "constant": true
    },
    {
      "inputs": [
        {
          "internalType": "uint256",
          "name": "tokenId",
          "type": "uint256"
        }
      ],
      "name": "ownerOf",
      "outputs": [
        {
          "internalType": "address",
          "name": "",
          "type": "address"
        }
      ],
      "stateMutability": "view",
      "type": "function",
      "constant": true
    },
    {
      "inputs": [],
      "name": "symbol",
      "outputs": [
        {
          "internalType": "string",
          "name": "",
          "type": "string"
        }
      ],
      "stateMutability": "view",
      "type": "function",
      "constant": true
    },
    {
      "inputs": [
        {
          "internalType": "uint256",
          "name": "index",
          "type": "uint256"
        }
      ],
      "name": "tokenByIndex",
      "outputs": [
        {
          "internalType": "uint256",
          "name": "",
          "type": "uint256"
        }
      ],
      "stateMutability": "view",
      "type": "function",
      "constant": true
    },
    {
      "inputs": [
        {
          "internalType": "address",
          "name": "owner",
          "type": "address"
        },
        {
          "internalType": "uint256",
          "name": "index",
          "type": "uint256"
        }
      ],
      "name": "tokenOfOwnerByIndex",
      "outputs": [
        {
          "internalType": "uint256",
          "name": "",
          "type": "uint256"
        }
      ],
      "stateMutability": "view",
      "type": "function",
      "constant": true
    },
    {
      "inputs": [],
      "name": "totalSupply",
      "outputs": [
        {
          "internalType": "uint256",
          "name": "",
          "type": "uint256"
        }
      ],
      "stateMutability": "view",
      "type": "function",
      "constant": true
    },
    {
      "inputs": [
        {
          "internalType": "address",
          "name": "_from",
          "type": "address"
        },
        {
          "internalType": "address",
          "name": "_to",
          "type": "address"
        },
        {
          "internalType": "uint256",
          "name": "_tokenId",
          "type": "uint256"
        }
      ],
      "name": "transferFrom",
      "outputs": [],
      "stateMutability": "nonpayable",
      "type": "function"
    },
    {
      "inputs": [
        {
          "internalType": "string",
          "name": "_kryptoBird",
          "type": "string"
        }
      ],
      "name": "mint",
      "outputs": [],
      "stateMutability": "nonpayable",
      "type": "function"
    }
  ],
  "bytecode": "0x60806040523480156200001157600080fd5b506040518060400160405280600a81526020017f4b727970746f62697264000000000000000000000000000000000000000000008152506040518060400160405280600781526020017f4b525950544f5a000000000000000000000000000000000000000000000000008152508181816000908051906020019062000098929190620000bc565b508060019080519060200190620000b1929190620000bc565b5050505050620001d1565b828054620000ca906200019b565b90600052602060002090601f016020900481019282620000ee57600085556200013a565b82601f106200010957805160ff19168380011785556200013a565b828001600101855582156200013a579182015b82811115620001395782518255916020019190600101906200011c565b5b5090506200014991906200014d565b5090565b5b80821115620001685760008160009055506001016200014e565b5090565b7f4e487b7100000000000000000000000000000000000000000000000000000000600052602260045260246000fd5b60006002820490506001821680620001b457607f821691505b60208210811415620001cb57620001ca6200016c565b5b50919050565b6116bd80620001e16000396000f3fe608060405234801561001057600080fd5b506004361061009e5760003560e01c80636352211e116100665780636352211e1461015b57806370a082311461018b57806393ab6e56146101bb57806395d89b41146101eb578063d85d3d27146102095761009e565b806306fdde03146100a357806318160ddd146100c157806323b872dd146100df5780632f745c59146100fb5780634f6ccce71461012b575b600080fd5b6100ab610225565b6040516100b89190610f04565b60405180910390f35b6100c96102b7565b6040516100d69190610f3f565b60405180910390f35b6100f960048036038101906100f49190610ff8565b6102c4565b005b6101156004803603810190610110919061104b565b6102d4565b6040516101229190610f3f565b60405180910390f35b6101456004803603810190610140919061108b565b6103f5565b6040516101529190610f3f565b60405180910390f35b6101756004803603810190610170919061108b565b6104cd565b60405161018291906110c7565b60405180910390f35b6101a560048036038101906101a091906110e2565b610576565b6040516101b29190610f3f565b60405180910390f35b6101d560048036038101906101d0919061108b565b6105f8565b6040516101e29190610f04565b60405180910390f35b6101f36106a4565b6040516102009190610f04565b60405180910390f35b610223600480360381019061021e9190611244565b610736565b005b606060008054610234906112bc565b80601f0160208091040260200160405190810160405280929190818152602001828054610260906112bc565b80156102ad5780601f10610282576101008083540402835291602001916102ad565b820191906000526020600020905b81548152906001019060200180831161029057829003601f168201915b5050505050905090565b6000600580549050905090565b6102cf838383610839565b505050565b60003073ffffffffffffffffffffffffffffffffffffffff166370a08231846040518263ffffffff1660e01b815260040161030f91906110c7565b602060405180830381865afa15801561032c573d6000803e3d6000fd5b505050506040513d601f19601f820116820180604052508101906103509190611303565b8210610391576040517f08c379a00000000000000000000000000000000000000000000000000000000081526004016103889061137c565b60405180910390fd5b600760008473ffffffffffffffffffffffffffffffffffffffff1673ffffffffffffffffffffffffffffffffffffffff16815260200190815260200160002082815481106103e2576103e161139c565b5b9060005260206000200154905092915050565b60003073ffffffffffffffffffffffffffffffffffffffff166318160ddd6040518163ffffffff1660e01b8152600401602060405180830381865afa158015610442573d6000803e3d6000fd5b505050506040513d601f19601f820116820180604052508101906104669190611303565b82106104a7576040517f08c379a000000000000000000000000000000000000000000000000000000000815260040161049e9061137c565b60405180910390fd5b600582815481106104bb576104ba61139c565b5b90600052602060002001549050919050565b60008073ffffffffffffffffffffffffffffffffffffffff166002600084815260200190815260200160002060009054906101000a900473ffffffffffffffffffffffffffffffffffffffff1673ffffffffffffffffffffffffffffffffffffffff16141561053b57600080fd5b6002600083815260200190815260200160002060009054906101000a900473ffffffffffffffffffffffffffffffffffffffff169050919050565b60008073ffffffffffffffffffffffffffffffffffffffff168273ffffffffffffffffffffffffffffffffffffffff1614156105b157600080fd5b600360008373ffffffffffffffffffffffffffffffffffffffff1673ffffffffffffffffffffffffffffffffffffffff168152602001908152602001600020549050919050565b6009818154811061060857600080fd5b906000526020600020016000915090508054610623906112bc565b80601f016020809104026020016040519081016040528092919081815260200182805461064f906112bc565b801561069c5780601f106106715761010080835404028352916020019161069c565b820191906000526020600020905b81548152906001019060200180831161067f57829003601f168201915b505050505081565b6060600180546106b3906112bc565b80601f01602080910402602001604051908101604052809291908181526020018280546106df906112bc565b801561072c5780601f106107015761010080835404028352916020019161072c565b820191906000526020600020905b81548152906001019060200180831161070f57829003601f168201915b5050505050905090565b600a816040516107469190611407565b908152602001604051809103902060009054906101000a900460ff16156107a2576040517f08c379a00000000000000000000000000000000000000000000000000000000081526004016107999061146a565b60405180910390fd5b6009819080600181540180825580915050600190039060005260206000200160009091909190915090805190602001906107dd929190610dc8565b50600060016009805490506107f291906114b9565b90506107fe3382610a7f565b6001600a836040516108109190611407565b908152602001604051809103902060006101000a81548160ff0219169083151502179055505050565b600073ffffffffffffffffffffffffffffffffffffffff168273ffffffffffffffffffffffffffffffffffffffff1614156108a9576040517f08c379a00000000000000000000000000000000000000000000000000000000081526004016108a090611539565b60405180910390fd5b8273ffffffffffffffffffffffffffffffffffffffff166108c9826104cd565b73ffffffffffffffffffffffffffffffffffffffff161461091f576040517f08c379a0000000000000000000000000000000000000000000000000000000008152600401610916906115a5565b60405180910390fd5b816002600083815260200190815260200160002060006101000a81548173ffffffffffffffffffffffffffffffffffffffff021916908373ffffffffffffffffffffffffffffffffffffffff1602179055506001600360008573ffffffffffffffffffffffffffffffffffffffff1673ffffffffffffffffffffffffffffffffffffffff16815260200190815260200160002060008282546109c191906114b9565b925050819055506001600360008473ffffffffffffffffffffffffffffffffffffffff1673ffffffffffffffffffffffffffffffffffffffff1681526020019081526020016000206000828254610a1891906115c5565b92505081905550808273ffffffffffffffffffffffffffffffffffffffff168473ffffffffffffffffffffffffffffffffffffffff167fddf252ad1be2c89b69c2b068fc378daa952ba7f163c4a11628f55a4df523b3ef60405160405180910390a4505050565b610a898282610aa0565b610a9281610cbb565b610a9c8282610d04565b5050565b600073ffffffffffffffffffffffffffffffffffffffff168273ffffffffffffffffffffffffffffffffffffffff161415610b10576040517f08c379a0000000000000000000000000000000000000000000000000000000008152600401610b0790611539565b60405180910390fd5b600073ffffffffffffffffffffffffffffffffffffffff166002600083815260200190815260200160002060009054906101000a900473ffffffffffffffffffffffffffffffffffffffff1673ffffffffffffffffffffffffffffffffffffffff1614610bb2576040517f08c379a0000000000000000000000000000000000000000000000000000000008152600401610ba990611667565b60405180910390fd5b816002600083815260200190815260200160002060006101000a81548173ffffffffffffffffffffffffffffffffffffffff021916908373ffffffffffffffffffffffffffffffffffffffff1602179055506001600360008473ffffffffffffffffffffffffffffffffffffffff1673ffffffffffffffffffffffffffffffffffffffff1681526020019081526020016000206000828254610c5491906115c5565b92505081905550808273ffffffffffffffffffffffffffffffffffffffff16600073ffffffffffffffffffffffffffffffffffffffff167fddf252ad1be2c89b69c2b068fc378daa952ba7f163c4a11628f55a4df523b3ef60405160405180910390a45050565b6005805490506006600083815260200190815260200160002081905550600581908060018154018082558091505060019003906000526020600020016000909190919091505550565b600760008373ffffffffffffffffffffffffffffffffffffffff1673ffffffffffffffffffffffffffffffffffffffff168152602001908152602001600020805490506008600083815260200190815260200160002081905550600760008373ffffffffffffffffffffffffffffffffffffffff1673ffffffffffffffffffffffffffffffffffffffff1681526020019081526020016000208190806001815401808255809150506001900390600052602060002001600090919091909150555050565b828054610dd4906112bc565b90600052602060002090601f016020900481019282610df65760008555610e3d565b82601f10610e0f57805160ff1916838001178555610e3d565b82800160010185558215610e3d579182015b82811115610e3c578251825591602001919060010190610e21565b5b509050610e4a9190610e4e565b5090565b5b80821115610e67576000816000905550600101610e4f565b5090565b600081519050919050565b600082825260208201905092915050565b60005b83811015610ea5578082015181840152602081019050610e8a565b83811115610eb4576000848401525b50505050565b6000601f19601f8301169050919050565b6000610ed682610e6b565b610ee08185610e76565b9350610ef0818560208601610e87565b610ef981610eba565b840191505092915050565b60006020820190508181036000830152610f1e8184610ecb565b905092915050565b6000819050919050565b610f3981610f26565b82525050565b6000602082019050610f546000830184610f30565b92915050565b6000604051905090565b600080fd5b600080fd5b600073ffffffffffffffffffffffffffffffffffffffff82169050919050565b6000610f9982610f6e565b9050919050565b610fa981610f8e565b8114610fb457600080fd5b50565b600081359050610fc681610fa0565b92915050565b610fd581610f26565b8114610fe057600080fd5b50565b600081359050610ff281610fcc565b92915050565b60008060006060848603121561101157611010610f64565b5b600061101f86828701610fb7565b935050602061103086828701610fb7565b925050604061104186828701610fe3565b9150509250925092565b6000806040838503121561106257611061610f64565b5b600061107085828601610fb7565b925050602061108185828601610fe3565b9150509250929050565b6000602082840312156110a1576110a0610f64565b5b60006110af84828501610fe3565b91505092915050565b6110c181610f8e565b82525050565b60006020820190506110dc60008301846110b8565b92915050565b6000602082840312156110f8576110f7610f64565b5b600061110684828501610fb7565b91505092915050565b600080fd5b600080fd5b7f4e487b7100000000000000000000000000000000000000000000000000000000600052604160045260246000fd5b61115182610eba565b810181811067ffffffffffffffff821117156111705761116f611119565b5b80604052505050565b6000611183610f5a565b905061118f8282611148565b919050565b600067ffffffffffffffff8211156111af576111ae611119565b5b6111b882610eba565b9050602081019050919050565b82818337600083830152505050565b60006111e76111e284611194565b611179565b90508281526020810184848401111561120357611202611114565b5b61120e8482856111c5565b509392505050565b600082601f83011261122b5761122a61110f565b5b813561123b8482602086016111d4565b91505092915050565b60006020828403121561125a57611259610f64565b5b600082013567ffffffffffffffff81111561127857611277610f69565b5b61128484828501611216565b91505092915050565b7f4e487b7100000000000000000000000000000000000000000000000000000000600052602260045260246000fd5b600060028204905060018216806112d457607f821691505b602082108114156112e8576112e761128d565b5b50919050565b6000815190506112fd81610fcc565b92915050565b60006020828403121561131957611318610f64565b5b6000611327848285016112ee565b91505092915050565b7f496e646578206f7574206f6620626f756e647321000000000000000000000000600082015250565b6000611366601483610e76565b915061137182611330565b602082019050919050565b6000602082019050818103600083015261139581611359565b9050919050565b7f4e487b7100000000000000000000000000000000000000000000000000000000600052603260045260246000fd5b600081905092915050565b60006113e182610e6b565b6113eb81856113cb565b93506113fb818560208601610e87565b80840191505092915050565b600061141382846113d6565b915081905092915050565b7f4b727970746f4269726420616c72656164792045786974732121000000000000600082015250565b6000611454601a83610e76565b915061145f8261141e565b602082019050919050565b6000602082019050818103600083015261148381611447565b9050919050565b7f4e487b7100000000000000000000000000000000000000000000000000000000600052601160045260246000fd5b60006114c482610f26565b91506114cf83610f26565b9250828210156114e2576114e161148a565b5b828203905092915050565b7f496e7365727420612076616c6964206164647265737300000000000000000000600082015250565b6000611523601683610e76565b915061152e826114ed565b602082019050919050565b6000602082019050818103600083015261155281611516565b9050919050565b7f4f6e776572206164647265737320697320696e636f7272656374212100000000600082015250565b600061158f601c83610e76565b915061159a82611559565b602082019050919050565b600060208201905081810360008301526115be81611582565b9050919050565b60006115d082610f26565b91506115db83610f26565b9250827fffffffffffffffffffffffffffffffffffffffffffffffffffffffffffffffff038211156116105761160f61148a565b5b828201905092915050565b7f546f6b656e20416c7265616479206d696e746564000000000000000000000000600082015250565b6000611651601483610e76565b915061165c8261161b565b602082019050919050565b6000602082019050818103600083015261168081611644565b905091905056fea26469706673582212205963c9e83c8ae355b1879d4209619911f45f4d609c1e2f87d47a3213f335d45964736f6c634300080c0033",
  "immutableReferences": {},
  "source": "// SPDX-License-Identifier: MIT\r\npragma solidity ^0.8.0;\r\nimport './ERC721Connector.sol';\r\n\r\n\r\ncontract Kryptobird is ERC721Connector {\r\n\r\n    string[] public kryptoBirdz;\r\n    mapping (string => bool) _kryptoBirdExists;\r\n\r\n    function mint(string memory _kryptoBird) public{\r\n        require(!_kryptoBirdExists[_kryptoBird],\"KryptoBird already Exits!!\");\r\n        kryptoBirdz.push(_kryptoBird);\r\n        uint _id = kryptoBirdz.length - 1;\r\n        _mint(msg.sender, _id);\r\n        _kryptoBirdExists[_kryptoBird] = true;\r\n\r\n    }\r\n\r\n    constructor() ERC721Connector(\"Kryptobird\",\"KRYPTOZ\") {\r\n     \r\n    }\r\n}",
  "sourcePath": "E:/blockchain/Nft marketplace/nft-marketplace-starter-kit/src/contracts/KryptoBirdz.sol",
  "compiler": {
    "name": "solc",
    "version": "0.8.12+commit.f00d7308.Emscripten.clang"
  },
  "schemaVersion": "3.4.1",
  "updatedAt": "2022-02-20T07:55:02.742Z",
  "networkType": "ethereum",
  "devdoc": {
    "kind": "dev",
    "methods": {},
    "version": 1
  },
  "userdoc": {
    "kind": "user",
    "methods": {},
    "version": 1
  }
}